{
  "_format": "hh-sol-artifact-1",
  "contractName": "GiveIsBlessed",
  "sourceName": "contracts/GIB.sol",
  "abi": [
    {
      "inputs": [],
      "stateMutability": "nonpayable",
      "type": "constructor"
    },
    {
      "anonymous": false,
      "inputs": [
        {
          "indexed": true,
          "internalType": "address",
          "name": "owner",
          "type": "address"
        },
        {
          "indexed": true,
          "internalType": "address",
          "name": "spender",
          "type": "address"
        },
        {
          "indexed": false,
          "internalType": "uint256",
          "name": "value",
          "type": "uint256"
        }
      ],
      "name": "Approval",
      "type": "event"
    },
    {
      "anonymous": false,
      "inputs": [
        {
          "indexed": true,
          "internalType": "address",
          "name": "from",
          "type": "address"
        },
        {
          "indexed": true,
          "internalType": "address",
          "name": "to",
          "type": "address"
        },
        {
          "indexed": false,
          "internalType": "uint256",
          "name": "value",
          "type": "uint256"
        }
      ],
      "name": "Transfer",
      "type": "event"
    },
    {
      "inputs": [
        {
          "internalType": "address",
          "name": "owner",
          "type": "address"
        },
        {
          "internalType": "address",
          "name": "spender",
          "type": "address"
        }
      ],
      "name": "allowance",
      "outputs": [
        {
          "internalType": "uint256",
          "name": "",
          "type": "uint256"
        }
      ],
      "stateMutability": "view",
      "type": "function"
    },
    {
      "inputs": [
        {
          "internalType": "address",
          "name": "spender",
          "type": "address"
        },
        {
          "internalType": "uint256",
          "name": "amount",
          "type": "uint256"
        }
      ],
      "name": "approve",
      "outputs": [
        {
          "internalType": "bool",
          "name": "",
          "type": "bool"
        }
      ],
      "stateMutability": "nonpayable",
      "type": "function"
    },
    {
      "inputs": [
        {
          "internalType": "address",
          "name": "account",
          "type": "address"
        }
      ],
      "name": "balanceOf",
      "outputs": [
        {
          "internalType": "uint256",
          "name": "",
          "type": "uint256"
        }
      ],
      "stateMutability": "view",
      "type": "function"
    },
    {
      "inputs": [],
      "name": "decimals",
      "outputs": [
        {
          "internalType": "uint8",
          "name": "",
          "type": "uint8"
        }
      ],
      "stateMutability": "view",
      "type": "function"
    },
    {
      "inputs": [
        {
          "internalType": "address",
          "name": "spender",
          "type": "address"
        },
        {
          "internalType": "uint256",
          "name": "subtractedValue",
          "type": "uint256"
        }
      ],
      "name": "decreaseAllowance",
      "outputs": [
        {
          "internalType": "bool",
          "name": "",
          "type": "bool"
        }
      ],
      "stateMutability": "nonpayable",
      "type": "function"
    },
    {
      "inputs": [
        {
          "internalType": "address",
          "name": "account",
          "type": "address"
        }
      ],
      "name": "getBalance",
      "outputs": [
        {
          "internalType": "uint256",
          "name": "",
          "type": "uint256"
        }
      ],
      "stateMutability": "view",
      "type": "function"
    },
    {
      "inputs": [
        {
          "internalType": "address",
          "name": "spender",
          "type": "address"
        },
        {
          "internalType": "uint256",
          "name": "addedValue",
          "type": "uint256"
        }
      ],
      "name": "increaseAllowance",
      "outputs": [
        {
          "internalType": "bool",
          "name": "",
          "type": "bool"
        }
      ],
      "stateMutability": "nonpayable",
      "type": "function"
    },
    {
      "inputs": [],
      "name": "name",
      "outputs": [
        {
          "internalType": "string",
          "name": "",
          "type": "string"
        }
      ],
      "stateMutability": "view",
      "type": "function"
    },
    {
      "inputs": [],
      "name": "symbol",
      "outputs": [
        {
          "internalType": "string",
          "name": "",
          "type": "string"
        }
      ],
      "stateMutability": "view",
      "type": "function"
    },
    {
      "inputs": [],
      "name": "totalSupply",
      "outputs": [
        {
          "internalType": "uint256",
          "name": "",
          "type": "uint256"
        }
      ],
      "stateMutability": "view",
      "type": "function"
    },
    {
      "inputs": [
        {
          "internalType": "address",
          "name": "to",
          "type": "address"
        },
        {
          "internalType": "uint256",
          "name": "amount",
          "type": "uint256"
        }
      ],
      "name": "transfer",
      "outputs": [
        {
          "internalType": "bool",
          "name": "",
          "type": "bool"
        }
      ],
      "stateMutability": "nonpayable",
      "type": "function"
    },
    {
      "inputs": [
        {
          "internalType": "address",
          "name": "from",
          "type": "address"
        },
        {
          "internalType": "address",
          "name": "to",
          "type": "address"
        },
        {
          "internalType": "uint256",
          "name": "amount",
          "type": "uint256"
        }
      ],
      "name": "transferFrom",
      "outputs": [
        {
          "internalType": "bool",
          "name": "",
          "type": "bool"
        }
      ],
      "stateMutability": "nonpayable",
      "type": "function"
    }
  ],
  "bytecode": "0x60806040523480156200001157600080fd5b506040518060400160405280600d81526020017f476976654973426c6573736564000000000000000000000000000000000000008152506040518060400160405280600381526020017f474942000000000000000000000000000000000000000000000000000000000081525081600390805190602001906200009692919062000279565b508060049080519060200190620000af92919062000279565b505050620000f233620000c7620000f860201b60201c565b600a620000d5919062000484565b6305f5e100620000e69190620005c1565b6200010160201b60201c565b620006da565b60006012905090565b600073ffffffffffffffffffffffffffffffffffffffff168273ffffffffffffffffffffffffffffffffffffffff16141562000174576040517f08c379a00000000000000000000000000000000000000000000000000000000081526004016200016b906200037c565b60405180910390fd5b62000188600083836200026f60201b60201c565b80600260008282546200019c9190620003cc565b92505081905550806000808473ffffffffffffffffffffffffffffffffffffffff1673ffffffffffffffffffffffffffffffffffffffff168152602001908152602001600020600082825401925050819055508173ffffffffffffffffffffffffffffffffffffffff16600073ffffffffffffffffffffffffffffffffffffffff167fddf252ad1be2c89b69c2b068fc378daa952ba7f163c4a11628f55a4df523b3ef836040516200024f91906200039e565b60405180910390a36200026b600083836200027460201b60201c565b5050565b505050565b505050565b828054620002879062000639565b90600052602060002090601f016020900481019282620002ab5760008555620002f7565b82601f10620002c657805160ff1916838001178555620002f7565b82800160010185558215620002f7579182015b82811115620002f6578251825591602001919060010190620002d9565b5b5090506200030691906200030a565b5090565b5b80821115620003255760008160009055506001016200030b565b5090565b600062000338601f83620003bb565b91507f45524332303a206d696e7420746f20746865207a65726f2061646472657373006000830152602082019050919050565b620003768162000622565b82525050565b60006020820190508181036000830152620003978162000329565b9050919050565b6000602082019050620003b560008301846200036b565b92915050565b600082825260208201905092915050565b6000620003d98262000622565b9150620003e68362000622565b9250827fffffffffffffffffffffffffffffffffffffffffffffffffffffffffffffffff038211156200041e576200041d6200066f565b5b828201905092915050565b6000808291508390505b60018511156200047b578086048111156200045357620004526200066f565b5b6001851615620004635780820291505b80810290506200047385620006cd565b945062000433565b94509492505050565b6000620004918262000622565b91506200049e836200062c565b9250620004cd7fffffffffffffffffffffffffffffffffffffffffffffffffffffffffffffffff8484620004d5565b905092915050565b600082620004e75760019050620005ba565b81620004f75760009050620005ba565b81600181146200051057600281146200051b5762000551565b6001915050620005ba565b60ff84111562000530576200052f6200066f565b5b8360020a9150848211156200054a57620005496200066f565b5b50620005ba565b5060208310610133831016604e8410600b84101617156200058b5782820a9050838111156200058557620005846200066f565b5b620005ba565b6200059a848484600162000429565b92509050818404811115620005b457620005b36200066f565b5b81810290505b9392505050565b6000620005ce8262000622565b9150620005db8362000622565b9250817fffffffffffffffffffffffffffffffffffffffffffffffffffffffffffffffff04831182151516156200061757620006166200066f565b5b828202905092915050565b6000819050919050565b600060ff82169050919050565b600060028204905060018216806200065257607f821691505b602082108114156200066957620006686200069e565b5b50919050565b7f4e487b7100000000000000000000000000000000000000000000000000000000600052601160045260246000fd5b7f4e487b7100000000000000000000000000000000000000000000000000000000600052602260045260246000fd5b60008160011c9050919050565b61124380620006ea6000396000f3fe608060405234801561001057600080fd5b50600436106100b45760003560e01c806370a082311161007157806370a08231146101a357806395d89b41146101d3578063a457c2d7146101f1578063a9059cbb14610221578063dd62ed3e14610251578063f8b2cb4f14610281576100b4565b806306fdde03146100b9578063095ea7b3146100d757806318160ddd1461010757806323b872dd14610125578063313ce567146101555780633950935114610173575b600080fd5b6100c16102b1565b6040516100ce9190610f0c565b60405180910390f35b6100f160048036038101906100ec9190610bab565b610343565b6040516100fe9190610ef1565b60405180910390f35b61010f610366565b60405161011c919061100e565b60405180910390f35b61013f600480360381019061013a9190610b5c565b610370565b60405161014c9190610ef1565b60405180910390f35b61015d61039f565b60405161016a9190611029565b60405180910390f35b61018d60048036038101906101889190610bab565b6103a8565b60405161019a9190610ef1565b60405180910390f35b6101bd60048036038101906101b89190610af7565b6103df565b6040516101ca919061100e565b60405180910390f35b6101db610427565b6040516101e89190610f0c565b60405180910390f35b61020b60048036038101906102069190610bab565b6104b9565b6040516102189190610ef1565b60405180910390f35b61023b60048036038101906102369190610bab565b610530565b6040516102489190610ef1565b60405180910390f35b61026b60048036038101906102669190610b20565b610553565b604051610278919061100e565b60405180910390f35b61029b60048036038101906102969190610af7565b6105da565b6040516102a8919061100e565b60405180910390f35b6060600380546102c09061113e565b80601f01602080910402602001604051908101604052809291908181526020018280546102ec9061113e565b80156103395780601f1061030e57610100808354040283529160200191610339565b820191906000526020600020905b81548152906001019060200180831161031c57829003601f168201915b5050505050905090565b60008061034e6105ec565b905061035b8185856105f4565b600191505092915050565b6000600254905090565b60008061037b6105ec565b90506103888582856107bf565b61039385858561084b565b60019150509392505050565b60006012905090565b6000806103b36105ec565b90506103d48185856103c58589610553565b6103cf9190611060565b6105f4565b600191505092915050565b60008060008373ffffffffffffffffffffffffffffffffffffffff1673ffffffffffffffffffffffffffffffffffffffff168152602001908152602001600020549050919050565b6060600480546104369061113e565b80601f01602080910402602001604051908101604052809291908181526020018280546104629061113e565b80156104af5780601f10610484576101008083540402835291602001916104af565b820191906000526020600020905b81548152906001019060200180831161049257829003601f168201915b5050505050905090565b6000806104c46105ec565b905060006104d28286610553565b905083811015610517576040517f08c379a000000000000000000000000000000000000000000000000000000000815260040161050e90610fee565b60405180910390fd5b61052482868684036105f4565b60019250505092915050565b60008061053b6105ec565b905061054881858561084b565b600191505092915050565b6000600160008473ffffffffffffffffffffffffffffffffffffffff1673ffffffffffffffffffffffffffffffffffffffff16815260200190815260200160002060008373ffffffffffffffffffffffffffffffffffffffff1673ffffffffffffffffffffffffffffffffffffffff16815260200190815260200160002054905092915050565b60006105e5826103df565b9050919050565b600033905090565b600073ffffffffffffffffffffffffffffffffffffffff168373ffffffffffffffffffffffffffffffffffffffff161415610664576040517f08c379a000000000000000000000000000000000000000000000000000000000815260040161065b90610fce565b60405180910390fd5b600073ffffffffffffffffffffffffffffffffffffffff168273ffffffffffffffffffffffffffffffffffffffff1614156106d4576040517f08c379a00000000000000000000000000000000000000000000000000000000081526004016106cb90610f4e565b60405180910390fd5b80600160008573ffffffffffffffffffffffffffffffffffffffff1673ffffffffffffffffffffffffffffffffffffffff16815260200190815260200160002060008473ffffffffffffffffffffffffffffffffffffffff1673ffffffffffffffffffffffffffffffffffffffff168152602001908152602001600020819055508173ffffffffffffffffffffffffffffffffffffffff168373ffffffffffffffffffffffffffffffffffffffff167f8c5be1e5ebec7d5bd14f71427d1e84f3dd0314c0f7b2291e5b200ac8c7c3b925836040516107b2919061100e565b60405180910390a3505050565b60006107cb8484610553565b90507fffffffffffffffffffffffffffffffffffffffffffffffffffffffffffffffff81146108455781811015610837576040517f08c379a000000000000000000000000000000000000000000000000000000000815260040161082e90610f6e565b60405180910390fd5b61084484848484036105f4565b5b50505050565b600073ffffffffffffffffffffffffffffffffffffffff168373ffffffffffffffffffffffffffffffffffffffff1614156108bb576040517f08c379a00000000000000000000000000000000000000000000000000000000081526004016108b290610fae565b60405180910390fd5b600073ffffffffffffffffffffffffffffffffffffffff168273ffffffffffffffffffffffffffffffffffffffff16141561092b576040517f08c379a000000000000000000000000000000000000000000000000000000000815260040161092290610f2e565b60405180910390fd5b610936838383610ac3565b60008060008573ffffffffffffffffffffffffffffffffffffffff1673ffffffffffffffffffffffffffffffffffffffff168152602001908152602001600020549050818110156109bc576040517f08c379a00000000000000000000000000000000000000000000000000000000081526004016109b390610f8e565b60405180910390fd5b8181036000808673ffffffffffffffffffffffffffffffffffffffff1673ffffffffffffffffffffffffffffffffffffffff16815260200190815260200160002081905550816000808573ffffffffffffffffffffffffffffffffffffffff1673ffffffffffffffffffffffffffffffffffffffff168152602001908152602001600020600082825401925050819055508273ffffffffffffffffffffffffffffffffffffffff168473ffffffffffffffffffffffffffffffffffffffff167fddf252ad1be2c89b69c2b068fc378daa952ba7f163c4a11628f55a4df523b3ef84604051610aaa919061100e565b60405180910390a3610abd848484610ac8565b50505050565b505050565b505050565b600081359050610adc816111df565b92915050565b600081359050610af1816111f6565b92915050565b600060208284031215610b0957600080fd5b6000610b1784828501610acd565b91505092915050565b60008060408385031215610b3357600080fd5b6000610b4185828601610acd565b9250506020610b5285828601610acd565b9150509250929050565b600080600060608486031215610b7157600080fd5b6000610b7f86828701610acd565b9350506020610b9086828701610acd565b9250506040610ba186828701610ae2565b9150509250925092565b60008060408385031215610bbe57600080fd5b6000610bcc85828601610acd565b9250506020610bdd85828601610ae2565b9150509250929050565b610bf0816110c8565b82525050565b6000610c0182611044565b610c0b818561104f565b9350610c1b81856020860161110b565b610c24816111ce565b840191505092915050565b6000610c3c60238361104f565b91507f45524332303a207472616e7366657220746f20746865207a65726f206164647260008301527f65737300000000000000000000000000000000000000000000000000000000006020830152604082019050919050565b6000610ca260228361104f565b91507f45524332303a20617070726f766520746f20746865207a65726f20616464726560008301527f73730000000000000000000000000000000000000000000000000000000000006020830152604082019050919050565b6000610d08601d8361104f565b91507f45524332303a20696e73756666696369656e7420616c6c6f77616e63650000006000830152602082019050919050565b6000610d4860268361104f565b91507f45524332303a207472616e7366657220616d6f756e742065786365656473206260008301527f616c616e636500000000000000000000000000000000000000000000000000006020830152604082019050919050565b6000610dae60258361104f565b91507f45524332303a207472616e736665722066726f6d20746865207a65726f20616460008301527f64726573730000000000000000000000000000000000000000000000000000006020830152604082019050919050565b6000610e1460248361104f565b91507f45524332303a20617070726f76652066726f6d20746865207a65726f2061646460008301527f72657373000000000000000000000000000000000000000000000000000000006020830152604082019050919050565b6000610e7a60258361104f565b91507f45524332303a2064656372656173656420616c6c6f77616e63652062656c6f7760008301527f207a65726f0000000000000000000000000000000000000000000000000000006020830152604082019050919050565b610edc816110f4565b82525050565b610eeb816110fe565b82525050565b6000602082019050610f066000830184610be7565b92915050565b60006020820190508181036000830152610f268184610bf6565b905092915050565b60006020820190508181036000830152610f4781610c2f565b9050919050565b60006020820190508181036000830152610f6781610c95565b9050919050565b60006020820190508181036000830152610f8781610cfb565b9050919050565b60006020820190508181036000830152610fa781610d3b565b9050919050565b60006020820190508181036000830152610fc781610da1565b9050919050565b60006020820190508181036000830152610fe781610e07565b9050919050565b6000602082019050818103600083015261100781610e6d565b9050919050565b60006020820190506110236000830184610ed3565b92915050565b600060208201905061103e6000830184610ee2565b92915050565b600081519050919050565b600082825260208201905092915050565b600061106b826110f4565b9150611076836110f4565b9250827fffffffffffffffffffffffffffffffffffffffffffffffffffffffffffffffff038211156110ab576110aa611170565b5b828201905092915050565b60006110c1826110d4565b9050919050565b60008115159050919050565b600073ffffffffffffffffffffffffffffffffffffffff82169050919050565b6000819050919050565b600060ff82169050919050565b60005b8381101561112957808201518184015260208101905061110e565b83811115611138576000848401525b50505050565b6000600282049050600182168061115657607f821691505b6020821081141561116a5761116961119f565b5b50919050565b7f4e487b7100000000000000000000000000000000000000000000000000000000600052601160045260246000fd5b7f4e487b7100000000000000000000000000000000000000000000000000000000600052602260045260246000fd5b6000601f19601f8301169050919050565b6111e8816110b6565b81146111f357600080fd5b50565b6111ff816110f4565b811461120a57600080fd5b5056fea26469706673582212204ececcb63d53b3e1b3a2bc4efdb646bfdc8422c29eb5dfa633f57e18c4e4ab5064736f6c63430008000033",
  "linkReferences": {},
  "deployedLinkReferences": {}
}