{
  "_format": "hh-sol-artifact-1",
  "contractName": "SampleVote",
  "sourceName": "contracts/vote.sol",
  "abi": [
    {
      "inputs": [],
      "stateMutability": "nonpayable",
      "type": "constructor"
    },
    {
      "anonymous": false,
      "inputs": [
        {
          "indexed": false,
          "internalType": "address",
          "name": "voter",
          "type": "address"
        },
        {
          "indexed": false,
          "internalType": "uint256",
          "name": "votes",
          "type": "uint256"
        }
      ],
      "name": "VoteCasted",
      "type": "event"
    },
    {
      "anonymous": false,
      "inputs": [],
      "name": "VotingValidated",
      "type": "event"
    },
    {
      "inputs": [],
      "name": "_currentVotes",
      "outputs": [
        {
          "internalType": "uint256",
          "name": "",
          "type": "uint256"
        }
      ],
      "stateMutability": "view",
      "type": "function"
    },
    {
      "inputs": [],
      "name": "_needVotes",
      "outputs": [
        {
          "internalType": "uint256",
          "name": "",
          "type": "uint256"
        }
      ],
      "stateMutability": "view",
      "type": "function"
    },
    {
      "inputs": [
        {
          "internalType": "address",
          "name": "_address",
          "type": "address"
        }
      ],
      "name": "addressVotes",
      "outputs": [
        {
          "internalType": "uint256",
          "name": "",
          "type": "uint256"
        }
      ],
      "stateMutability": "view",
      "type": "function"
    },
    {
      "inputs": [],
      "name": "currentVotes",
      "outputs": [
        {
          "internalType": "uint256",
          "name": "",
          "type": "uint256"
        }
      ],
      "stateMutability": "view",
      "type": "function"
    },
    {
      "inputs": [],
      "name": "owner",
      "outputs": [
        {
          "internalType": "address",
          "name": "",
          "type": "address"
        }
      ],
      "stateMutability": "view",
      "type": "function"
    },
    {
      "inputs": [],
      "name": "passed",
      "outputs": [
        {
          "internalType": "bool",
          "name": "",
          "type": "bool"
        }
      ],
      "stateMutability": "view",
      "type": "function"
    },
    {
      "inputs": [],
      "name": "validate",
      "outputs": [],
      "stateMutability": "nonpayable",
      "type": "function"
    },
    {
      "inputs": [
        {
          "internalType": "uint256",
          "name": "_amount",
          "type": "uint256"
        }
      ],
      "name": "vote",
      "outputs": [
        {
          "internalType": "bool",
          "name": "",
          "type": "bool"
        }
      ],
      "stateMutability": "nonpayable",
      "type": "function"
    },
    {
      "inputs": [
        {
          "internalType": "address",
          "name": "",
          "type": "address"
        }
      ],
      "name": "votes",
      "outputs": [
        {
          "internalType": "uint256",
          "name": "",
          "type": "uint256"
        }
      ],
      "stateMutability": "view",
      "type": "function"
    }
  ],
  "bytecode": "0x60806040526000600155600a6002556000600360006101000a81548160ff02191690831515021790555034801561003557600080fd5b50336000806101000a81548173ffffffffffffffffffffffffffffffffffffffff021916908373ffffffffffffffffffffffffffffffffffffffff16021790555061083b806100856000396000f3fe608060405234801561001057600080fd5b50600436106100935760003560e01c8063a05b5c3011610066578063a05b5c301461010e578063a34bb6e61461012c578063d8bff5a51461015c578063e87264ad1461018c578063f7315779146101aa57610093565b80630121b93f146100985780636901f668146100c85780638da5cb5b146100d2578063994ba4d2146100f0575b600080fd5b6100b260048036038101906100ad9190610569565b6101c8565b6040516100bf9190610683565b60405180910390f35b6100d0610313565b005b6100da610452565b6040516100e7919061063f565b60405180910390f35b6100f8610476565b60405161010591906106de565b60405180910390f35b610116610480565b6040516101239190610683565b60405180910390f35b61014660048036038101906101419190610540565b610493565b60405161015391906106de565b60405180910390f35b61017660048036038101906101719190610540565b6104dc565b60405161018391906106de565b60405180910390f35b6101946104f4565b6040516101a191906106de565b60405180910390f35b6101b26104fa565b6040516101bf91906106de565b60405180910390f35b600060011515600360009054906101000a900460ff1615151415610221576040517f08c379a00000000000000000000000000000000000000000000000000000000081526004016102189061069e565b60405180910390fd5b61027382600460003373ffffffffffffffffffffffffffffffffffffffff1673ffffffffffffffffffffffffffffffffffffffff1681526020019081526020016000205461050090919063ffffffff16565b600460003373ffffffffffffffffffffffffffffffffffffffff1673ffffffffffffffffffffffffffffffffffffffff168152602001908152602001600020819055506102cb8260015461050090919063ffffffff16565b6001819055507fd0e6c39f2e086dc49f1524b47725526a56945cd1ff661f37976f1725a1e56986338360405161030292919061065a565b60405180910390a160019050919050565b60008054906101000a900473ffffffffffffffffffffffffffffffffffffffff1673ffffffffffffffffffffffffffffffffffffffff163373ffffffffffffffffffffffffffffffffffffffff161461036b57600080fd5b60011515600360009054906101000a900460ff16151514156103c2576040517f08c379a00000000000000000000000000000000000000000000000000000000081526004016103b99061069e565b60405180910390fd5b6002546001541015610409576040517f08c379a0000000000000000000000000000000000000000000000000000000008152600401610400906106be565b60405180910390fd5b6001600360006101000a81548160ff0219169083151502179055507f9c9c3faded4c60c49f5138ee81847eb75ad26d8b066ca3c02b33c46ccfa5449760405160405180910390a1565b60008054906101000a900473ffffffffffffffffffffffffffffffffffffffff1681565b6000600154905090565b600360009054906101000a900460ff1681565b6000600460008373ffffffffffffffffffffffffffffffffffffffff1673ffffffffffffffffffffffffffffffffffffffff168152602001908152602001600020549050919050565b60046020528060005260406000206000915090505481565b60025481565b60015481565b6000818361050e919061070a565b905092915050565b600081359050610525816107d7565b92915050565b60008135905061053a816107ee565b92915050565b60006020828403121561055257600080fd5b600061056084828501610516565b91505092915050565b60006020828403121561057b57600080fd5b60006105898482850161052b565b91505092915050565b61059b81610760565b82525050565b6105aa81610772565b82525050565b60006105bd600e836106f9565b91507f50726f6772616d207061737365640000000000000000000000000000000000006000830152602082019050919050565b60006105fd6019836106f9565b91507f4e6f7420656e6f75676820766f74657320746f20706173732e000000000000006000830152602082019050919050565b6106398161079e565b82525050565b60006020820190506106546000830184610592565b92915050565b600060408201905061066f6000830185610592565b61067c6020830184610630565b9392505050565b600060208201905061069860008301846105a1565b92915050565b600060208201905081810360008301526106b7816105b0565b9050919050565b600060208201905081810360008301526106d7816105f0565b9050919050565b60006020820190506106f36000830184610630565b92915050565b600082825260208201905092915050565b60006107158261079e565b91506107208361079e565b9250827fffffffffffffffffffffffffffffffffffffffffffffffffffffffffffffffff03821115610755576107546107a8565b5b828201905092915050565b600061076b8261077e565b9050919050565b60008115159050919050565b600073ffffffffffffffffffffffffffffffffffffffff82169050919050565b6000819050919050565b7f4e487b7100000000000000000000000000000000000000000000000000000000600052601160045260246000fd5b6107e081610760565b81146107eb57600080fd5b50565b6107f78161079e565b811461080257600080fd5b5056fea2646970667358221220945db7767a095179f796f947d84d947dc6d720e20f54cad31a93f68661f17c1564736f6c63430008000033",
  "linkReferences": {},
  "deployedLinkReferences": {}
}